:100000000C9434000C9446000C9446000C9446006A
:100010000C9446000C9446000C9446000C94460048
:100020000C9446000C9446000C9446000C94460038
:100030000C9446000C9448000C9446000C94460026
:100040000C9446000C9446000C9446000C94460018
:100050000C9446000C946B000C9446000C944600E3
:100060000C9446000C94460011241FBECFEFD8E03C
:10007000DEBFCDBF21E0A0E0B1E001C01D92A13004
:10008000B207E1F70E947C000C94B7000C940000CA
:100090001F920F920FB60F9211248F939F93EF939D
:1000A000FF9387EF92EC909385008093840081E02A
:1000B00086BBE0ECF0E0808185FFFDCF8091000100
:1000C0008093C600FF91EF919F918F910F900FBE8B
:1000D0000F901F9018951F920F920FB60F92112438
:1000E0008F9380917900880F809300018F910F90FA
:1000F0000FBE0F901F901895ECE7F0E01082808102
:1001000080648083808180628083EAE7F0E0808180
:100110008760808380818062808310927B008081F1
:100120008068808380818860808380818064808310
:100130001092C50087E68093C400E1ECF0E0808176
:1001400088618083E2ECF0E080818660808387EFC5
:1001500092EC909385008093840081E080936F00FF
:100160001092800085E0809381007894FFCFF8940E
:02017000FFCFBF
:00000001FF
