:020000020000FC
:10000000A2E2B2E0C0E0D4E0E0E0F6E04CE251E091
:10001000662761E0760F88279927760F7D93839571
:10002000803031F04817C9F75917B9F70C941C0004
:10003000882793950C940D006627772788279927A2
:100040006E91762F753039F0753058F075507530E7
:10005000C8F70C9431006993160F161758F00C94DA
:1000600035006193360F361740F08395803041F0AC
:100070000C94440003950C94350023950C943500A2
:10008000882793950C9420004817D1F65917C1F68C
:00000001FF
