:100000000C9434000C9451000C9451000C94510049
:100010000C9451000C9451000C9451000C9451001C
:100020000C9451000C9451000C9451000C9451000C
:100030000C9451000C9451000C9451000C945100FC
:100040000C9451000C9451000C9451000C945100EC
:100050000C9451000C9468000C9451000C945100C5
:100060000C9451000C94510011241FBECFEFD8E026
:10007000DEBFCDBF11E0A0E0B1E0ECEBF6E002C0E6
:1000800005900D92AA3BB107D9F721E0AAEBB1E0A8
:1000900001C01D92A03CB207E1F70E9400010C9440
:1000A0005C030C9400001092C50080E18093C400B2
:1000B000E0ECF0E0808182608083E1ECF0E0808120
:1000C00088608083E2ECF0E0808186608083089520
:1000D0001F920F920FB60F9211242F933F934F93BD
:1000E0005F936F937F938F939F93AF93BF93EF93A0
:1000F000FF93CF93DF93CDB7DEB72597DEBFCDBF9C
:100100006091790070E0660F771F072E000C880B56
:10011000990B0E942E0226E636E646EE5FE30E9429
:10012000BA0220E030E040E052E40E9491010E94D7
:10013000FD016093BF018091BF014AE0BE016F5F86
:100140007F4F90E00E942703FE01319680E090E00F
:100150002191DC01A654BE4F2C9301968530910568
:10016000B9F70F900F900F900F900F90DF91CF91F4
:10017000FF91EF91BF91AF919F918F917F916F917F
:100180005F914F913F912F910F900FBE0F901F9055
:100190001895CF93DF9300D0CDB7DEB79C011A82BC
:1001A0008A81F901E80FF11D8081882351F09A813D
:1001B0009F5F9A838A81F901E80FF11D8081811187
:1001C000F6CF198299818A819817A8F4E0ECF0E0C3
:1001D00046EC50E0908195FFFDCF8981D901A80FB1
:1001E000B11D8C91DA018C9399819F5F99839981DC
:1001F0008A81981778F30F900F90DF91CF9108952F
:10020000ECE7F0E0108280818064808380818062EE
:100210008083EAE7F0E0808187608083808180626C
:10022000808310927B0080818068808380818860D9
:1002300080838081806480830E9453002FEF83ED50
:1002400090E3215080409040E1F700C0000085EB32
:1002500091E00E94C9002FEF83ED90E32150804090
:100260009040E1F700C0000085E091E00E94C900E5
:100270002FEF83ED90E3215080409040E1F700C0E4
:10028000000087E391E00E94C9002FEF83ED90E327
:10029000215080409040E1F700C000008EE091E0E6
:1002A0000E94C9002FEF87EA91E6215080409040DC
:1002B000E1F700C0000087EA91E00E94C90078944D
:1002C0002FEF89E698E1215080409040E1F700C08F
:1002D00000008EE791E00E94C9002FEF89E698E1C7
:1002E000215080409040E1F700C0000085E491E09B
:1002F0000E94C9002FEF89E698E12150804090408C
:10030000E1F700C0000085E591E00E94C9008AEB9A
:1003100091E00E94C90080E091E00E94C900D0CF26
:100320005058BB27AA270E94A8010C9480020E9463
:10033000720238F00E94790220F039F49F3F19F4DC
:1003400026F40C946F020EF4E095E7FB0C9469021E
:10035000E92F0E94910258F3BA17620773078407C6
:10036000950720F079F4A6F50C94B3020EF4E0950D
:100370000B2EBA2FA02D0B01B90190010C01CA015F
:10038000A0011124FF27591B99F0593F50F4503E0A
:1003900068F11A16F040A22F232F342F4427585FFC
:1003A000F3CF469537952795A795F0405395C9F714
:1003B0007EF41F16BA0B620B730B840BBAF09150CC
:1003C000A1F0FF0FBB1F661F771F881FC2F70EC06B
:1003D000BA0F621F731F841F48F48795779567953E
:1003E000B795F7959E3F08F0B0CF9395880F08F02A
:1003F0009927EE0F9795879508950E94990288F0A6
:100400009F5798F0B92F9927B751B0F0E1F0660FD8
:10041000771F881F991F1AF0BA95C9F714C0B13019
:1004200091F00E94B302B1E008950C94B302672FDB
:10043000782F8827B85F39F0B93FCCF38695779548
:100440006795B395D9F73EF4909580957095619531
:100450007F4F8F4F9F4F0895E89409C097FB3EF45C
:1004600090958095709561957F4F8F4F9F4F992301
:10047000A9F0F92F96E9BB279395F695879577957F
:100480006795B795F111F8CFFAF4BB0F11F460FF3F
:100490001BC06F5F7F4F8F4F9F4F16C0882311F097
:1004A00096E911C0772321F09EE8872F762F05C0AB
:1004B000662371F096E8862F70E060E02AF09A9546
:1004C000660F771F881FDAF7880F9695879597F93B
:1004D000089597F99F6780E870E060E008959FEFC6
:1004E00080EC089500240A941616170618060906CB
:1004F000089500240A94121613061406050608959A
:10050000092E0394000C11F4882352F0BB0F40F421
:10051000BF2B11F460FF04C06F5F7F4F8F4F9F4F61
:10052000089557FD9058440F551F59F05F3F71F0E3
:100530004795880F97FB991F61F09F3F79F087954A
:100540000895121613061406551FF2CF4695F1DFD3
:1005500008C0161617061806991FF1CF8695710563
:10056000610508940895E894BB2766277727CB0197
:1005700097F908950E94CD020C9480020E947202A5
:1005800038F00E94790220F0952311F00C94690252
:100590000C946F0211240C94B4020E94910270F327
:1005A000959FC1F3950F50E0551F629FF001729F18
:1005B000BB27F00DB11D639FAA27F00DB11DAA1F27
:1005C000649F6627B00DA11D661F829F2227B00D74
:1005D000A11D621F739FB00DA11D621F839FA00DFF
:1005E000611D221F749F3327A00D611D231F849F4F
:1005F000600D211D822F762F6A2F11249F575040A6
:100600009AF0F1F088234AF0EE0FFF1FBB1F661F20
:10061000771F881F91505040A9F79E3F510580F0E9
:100620000C9469020C94B4025F3FE4F3983ED4F357
:10063000869577956795B795F795E7959F5FC1F78D
:10064000FE2B880F911D9695879597F90895BB27E6
:100650004A3031F4992322F4BDE2909581959F4F61
:100660000C943303BB27FB015527AA27880F991F3A
:10067000AA1FA41710F0A41B83955051B9F7A05DD1
:10068000AA3308F0A95DA193009779F7B111B1934E
:100690001192CB010C944C03DC01FC01672F71918A
:1006A0007723E1F7329704C07C916D937083629158
:0C06B000AE17BF07C8F30895F894FFCF01
:1006BC000D0A0D0A0041542B474D520D0A004154AE
:1006CC002B43574A41503D2243414D50204E4F55EC
:1006DC00222C22406E65572E6F6C4421735461722C
:1006EC002A5369220D0A0041542B43574D4F444560
:1006FC003D330D0A0041542B43495053454E443D64
:10070C0034350D0A00474554202F757064617465AB
:10071C003F6B65793D5238383338574634424A4A34
:10072C003052565332266669656C64313D00415433
:10073C002B43495053544152543D22544350222C84
:10074C00223138342E3130362E3135332E31343986
:10075C00222C38300D0A0041542B4349504D55582A
:0A076C003D300D0A0041540D0A0053
:00000001FF
