:100000000C9434000C943E000C943E000C943E0082
:100010000C943E000C943E000C943E000C943E0068
:100020000C943E000C943E000C943E000C943E0058
:100030000C943E000C943E000C943E000C943E0048
:100040000C943E000C943E000C943E000C943E0038
:100050000C943E000C943E000C943E000C943E0028
:100060000C943E000C943E0011241FBECFEFD8E04C
:10007000DEBFCDBF0E9440000C9478000C940000BD
:100080008FEF84B910927C0087E880937A008BE12F
:100090008093810082E88093800084EC99E09093C3
:1000A000870080938600EAE7F0E048E750E0C8E880
:1000B000D0E08081806480838081DA012D913C9141
:1000C000ABEABAEA0E94690096958795998388837E
:1000D000F0CFA29FB001B39FC001A39F700D811DFF
:1000E0001124911DB29F700D811D1124911D089541
:0400F000F894FFCFB2
:00000001FF
